{
  "contractName": "WhenLambo",
  "abi": [
    {
      "inputs": [],
      "stateMutability": "nonpayable",
      "type": "constructor"
    },
    {
      "anonymous": false,
      "inputs": [
        {
          "indexed": true,
          "internalType": "address",
          "name": "owner",
          "type": "address"
        },
        {
          "indexed": true,
          "internalType": "address",
          "name": "approved",
          "type": "address"
        },
        {
          "indexed": true,
          "internalType": "uint256",
          "name": "tokenId",
          "type": "uint256"
        }
      ],
      "name": "Approval",
      "type": "event"
    },
    {
      "anonymous": false,
      "inputs": [
        {
          "indexed": true,
          "internalType": "address",
          "name": "owner",
          "type": "address"
        },
        {
          "indexed": true,
          "internalType": "address",
          "name": "operator",
          "type": "address"
        },
        {
          "indexed": false,
          "internalType": "bool",
          "name": "approved",
          "type": "bool"
        }
      ],
      "name": "ApprovalForAll",
      "type": "event"
    },
    {
      "anonymous": false,
      "inputs": [
        {
          "indexed": false,
          "internalType": "address",
          "name": "account",
          "type": "address"
        }
      ],
      "name": "Paused",
      "type": "event"
    },
    {
      "anonymous": false,
      "inputs": [
        {
          "indexed": true,
          "internalType": "bytes32",
          "name": "role",
          "type": "bytes32"
        },
        {
          "indexed": true,
          "internalType": "bytes32",
          "name": "previousAdminRole",
          "type": "bytes32"
        },
        {
          "indexed": true,
          "internalType": "bytes32",
          "name": "newAdminRole",
          "type": "bytes32"
        }
      ],
      "name": "RoleAdminChanged",
      "type": "event"
    },
    {
      "anonymous": false,
      "inputs": [
        {
          "indexed": true,
          "internalType": "bytes32",
          "name": "role",
          "type": "bytes32"
        },
        {
          "indexed": true,
          "internalType": "address",
          "name": "account",
          "type": "address"
        },
        {
          "indexed": true,
          "internalType": "address",
          "name": "sender",
          "type": "address"
        }
      ],
      "name": "RoleGranted",
      "type": "event"
    },
    {
      "anonymous": false,
      "inputs": [
        {
          "indexed": true,
          "internalType": "bytes32",
          "name": "role",
          "type": "bytes32"
        },
        {
          "indexed": true,
          "internalType": "address",
          "name": "account",
          "type": "address"
        },
        {
          "indexed": true,
          "internalType": "address",
          "name": "sender",
          "type": "address"
        }
      ],
      "name": "RoleRevoked",
      "type": "event"
    },
    {
      "anonymous": false,
      "inputs": [
        {
          "indexed": true,
          "internalType": "address",
          "name": "from",
          "type": "address"
        },
        {
          "indexed": true,
          "internalType": "address",
          "name": "to",
          "type": "address"
        },
        {
          "indexed": true,
          "internalType": "uint256",
          "name": "tokenId",
          "type": "uint256"
        }
      ],
      "name": "Transfer",
      "type": "event"
    },
    {
      "anonymous": false,
      "inputs": [
        {
          "indexed": false,
          "internalType": "address",
          "name": "account",
          "type": "address"
        }
      ],
      "name": "Unpaused",
      "type": "event"
    },
    {
      "inputs": [],
      "name": "DEFAULT_ADMIN_ROLE",
      "outputs": [
        {
          "internalType": "bytes32",
          "name": "",
          "type": "bytes32"
        }
      ],
      "stateMutability": "view",
      "type": "function",
      "constant": true
    },
    {
      "inputs": [],
      "name": "MINTER_ROLE",
      "outputs": [
        {
          "internalType": "bytes32",
          "name": "",
          "type": "bytes32"
        }
      ],
      "stateMutability": "view",
      "type": "function",
      "constant": true
    },
    {
      "inputs": [],
      "name": "PAUSER_ROLE",
      "outputs": [
        {
          "internalType": "bytes32",
          "name": "",
          "type": "bytes32"
        }
      ],
      "stateMutability": "view",
      "type": "function",
      "constant": true
    },
    {
      "inputs": [],
      "name": "_cap",
      "outputs": [
        {
          "internalType": "uint256",
          "name": "",
          "type": "uint256"
        }
      ],
      "stateMutability": "view",
      "type": "function",
      "constant": true
    },
    {
      "inputs": [],
      "name": "_price",
      "outputs": [
        {
          "internalType": "uint256",
          "name": "",
          "type": "uint256"
        }
      ],
      "stateMutability": "view",
      "type": "function",
      "constant": true
    },
    {
      "inputs": [
        {
          "internalType": "address",
          "name": "to",
          "type": "address"
        },
        {
          "internalType": "uint256",
          "name": "tokenId",
          "type": "uint256"
        }
      ],
      "name": "approve",
      "outputs": [],
      "stateMutability": "nonpayable",
      "type": "function"
    },
    {
      "inputs": [
        {
          "internalType": "address",
          "name": "owner",
          "type": "address"
        }
      ],
      "name": "balanceOf",
      "outputs": [
        {
          "internalType": "uint256",
          "name": "",
          "type": "uint256"
        }
      ],
      "stateMutability": "view",
      "type": "function",
      "constant": true
    },
    {
      "inputs": [],
      "name": "baseURI",
      "outputs": [
        {
          "internalType": "string",
          "name": "",
          "type": "string"
        }
      ],
      "stateMutability": "view",
      "type": "function",
      "constant": true
    },
    {
      "inputs": [
        {
          "internalType": "uint256",
          "name": "tokenId",
          "type": "uint256"
        }
      ],
      "name": "burn",
      "outputs": [],
      "stateMutability": "nonpayable",
      "type": "function"
    },
    {
      "inputs": [
        {
          "internalType": "uint256",
          "name": "tokenId",
          "type": "uint256"
        }
      ],
      "name": "getApproved",
      "outputs": [
        {
          "internalType": "address",
          "name": "",
          "type": "address"
        }
      ],
      "stateMutability": "view",
      "type": "function",
      "constant": true
    },
    {
      "inputs": [
        {
          "internalType": "bytes32",
          "name": "role",
          "type": "bytes32"
        }
      ],
      "name": "getRoleAdmin",
      "outputs": [
        {
          "internalType": "bytes32",
          "name": "",
          "type": "bytes32"
        }
      ],
      "stateMutability": "view",
      "type": "function",
      "constant": true
    },
    {
      "inputs": [
        {
          "internalType": "bytes32",
          "name": "role",
          "type": "bytes32"
        },
        {
          "internalType": "uint256",
          "name": "index",
          "type": "uint256"
        }
      ],
      "name": "getRoleMember",
      "outputs": [
        {
          "internalType": "address",
          "name": "",
          "type": "address"
        }
      ],
      "stateMutability": "view",
      "type": "function",
      "constant": true
    },
    {
      "inputs": [
        {
          "internalType": "bytes32",
          "name": "role",
          "type": "bytes32"
        }
      ],
      "name": "getRoleMemberCount",
      "outputs": [
        {
          "internalType": "uint256",
          "name": "",
          "type": "uint256"
        }
      ],
      "stateMutability": "view",
      "type": "function",
      "constant": true
    },
    {
      "inputs": [
        {
          "internalType": "bytes32",
          "name": "role",
          "type": "bytes32"
        },
        {
          "internalType": "address",
          "name": "account",
          "type": "address"
        }
      ],
      "name": "grantRole",
      "outputs": [],
      "stateMutability": "nonpayable",
      "type": "function"
    },
    {
      "inputs": [
        {
          "internalType": "bytes32",
          "name": "role",
          "type": "bytes32"
        },
        {
          "internalType": "address",
          "name": "account",
          "type": "address"
        }
      ],
      "name": "hasRole",
      "outputs": [
        {
          "internalType": "bool",
          "name": "",
          "type": "bool"
        }
      ],
      "stateMutability": "view",
      "type": "function",
      "constant": true
    },
    {
      "inputs": [
        {
          "internalType": "address",
          "name": "owner",
          "type": "address"
        },
        {
          "internalType": "address",
          "name": "operator",
          "type": "address"
        }
      ],
      "name": "isApprovedForAll",
      "outputs": [
        {
          "internalType": "bool",
          "name": "",
          "type": "bool"
        }
      ],
      "stateMutability": "view",
      "type": "function",
      "constant": true
    },
    {
      "inputs": [
        {
          "internalType": "address",
          "name": "to",
          "type": "address"
        }
      ],
      "name": "mint",
      "outputs": [],
      "stateMutability": "nonpayable",
      "type": "function"
    },
    {
      "inputs": [],
      "name": "name",
      "outputs": [
        {
          "internalType": "string",
          "name": "",
          "type": "string"
        }
      ],
      "stateMutability": "view",
      "type": "function",
      "constant": true
    },
    {
      "inputs": [
        {
          "internalType": "uint256",
          "name": "tokenId",
          "type": "uint256"
        }
      ],
      "name": "ownerOf",
      "outputs": [
        {
          "internalType": "address",
          "name": "",
          "type": "address"
        }
      ],
      "stateMutability": "view",
      "type": "function",
      "constant": true
    },
    {
      "inputs": [],
      "name": "pause",
      "outputs": [],
      "stateMutability": "nonpayable",
      "type": "function"
    },
    {
      "inputs": [],
      "name": "paused",
      "outputs": [
        {
          "internalType": "bool",
          "name": "",
          "type": "bool"
        }
      ],
      "stateMutability": "view",
      "type": "function",
      "constant": true
    },
    {
      "inputs": [
        {
          "internalType": "bytes32",
          "name": "role",
          "type": "bytes32"
        },
        {
          "internalType": "address",
          "name": "account",
          "type": "address"
        }
      ],
      "name": "renounceRole",
      "outputs": [],
      "stateMutability": "nonpayable",
      "type": "function"
    },
    {
      "inputs": [
        {
          "internalType": "bytes32",
          "name": "role",
          "type": "bytes32"
        },
        {
          "internalType": "address",
          "name": "account",
          "type": "address"
        }
      ],
      "name": "revokeRole",
      "outputs": [],
      "stateMutability": "nonpayable",
      "type": "function"
    },
    {
      "inputs": [
        {
          "internalType": "address",
          "name": "from",
          "type": "address"
        },
        {
          "internalType": "address",
          "name": "to",
          "type": "address"
        },
        {
          "internalType": "uint256",
          "name": "tokenId",
          "type": "uint256"
        }
      ],
      "name": "safeTransferFrom",
      "outputs": [],
      "stateMutability": "nonpayable",
      "type": "function"
    },
    {
      "inputs": [
        {
          "internalType": "address",
          "name": "from",
          "type": "address"
        },
        {
          "internalType": "address",
          "name": "to",
          "type": "address"
        },
        {
          "internalType": "uint256",
          "name": "tokenId",
          "type": "uint256"
        },
        {
          "internalType": "bytes",
          "name": "_data",
          "type": "bytes"
        }
      ],
      "name": "safeTransferFrom",
      "outputs": [],
      "stateMutability": "nonpayable",
      "type": "function"
    },
    {
      "inputs": [
        {
          "internalType": "address",
          "name": "operator",
          "type": "address"
        },
        {
          "internalType": "bool",
          "name": "approved",
          "type": "bool"
        }
      ],
      "name": "setApprovalForAll",
      "outputs": [],
      "stateMutability": "nonpayable",
      "type": "function"
    },
    {
      "inputs": [
        {
          "internalType": "bytes4",
          "name": "interfaceId",
          "type": "bytes4"
        }
      ],
      "name": "supportsInterface",
      "outputs": [
        {
          "internalType": "bool",
          "name": "",
          "type": "bool"
        }
      ],
      "stateMutability": "view",
      "type": "function",
      "constant": true
    },
    {
      "inputs": [],
      "name": "symbol",
      "outputs": [
        {
          "internalType": "string",
          "name": "",
          "type": "string"
        }
      ],
      "stateMutability": "view",
      "type": "function",
      "constant": true
    },
    {
      "inputs": [
        {
          "internalType": "uint256",
          "name": "index",
          "type": "uint256"
        }
      ],
      "name": "tokenByIndex",
      "outputs": [
        {
          "internalType": "uint256",
          "name": "",
          "type": "uint256"
        }
      ],
      "stateMutability": "view",
      "type": "function",
      "constant": true
    },
    {
      "inputs": [
        {
          "internalType": "address",
          "name": "owner",
          "type": "address"
        },
        {
          "internalType": "uint256",
          "name": "index",
          "type": "uint256"
        }
      ],
      "name": "tokenOfOwnerByIndex",
      "outputs": [
        {
          "internalType": "uint256",
          "name": "",
          "type": "uint256"
        }
      ],
      "stateMutability": "view",
      "type": "function",
      "constant": true
    },
    {
      "inputs": [
        {
          "internalType": "uint256",
          "name": "tokenId",
          "type": "uint256"
        }
      ],
      "name": "tokenURI",
      "outputs": [
        {
          "internalType": "string",
          "name": "",
          "type": "string"
        }
      ],
      "stateMutability": "view",
      "type": "function",
      "constant": true
    },
    {
      "inputs": [],
      "name": "totalSupply",
      "outputs": [
        {
          "internalType": "uint256",
          "name": "",
          "type": "uint256"
        }
      ],
      "stateMutability": "view",
      "type": "function",
      "constant": true
    },
    {
      "inputs": [
        {
          "internalType": "address",
          "name": "from",
          "type": "address"
        },
        {
          "internalType": "address",
          "name": "to",
          "type": "address"
        },
        {
          "internalType": "uint256",
          "name": "tokenId",
          "type": "uint256"
        }
      ],
      "name": "transferFrom",
      "outputs": [],
      "stateMutability": "nonpayable",
      "type": "function"
    },
    {
      "inputs": [],
      "name": "unpause",
      "outputs": [],
      "stateMutability": "nonpayable",
      "type": "function"
    },
    {
      "inputs": [
        {
          "internalType": "uint256",
          "name": "_tokenId",
          "type": "uint256"
        }
      ],
      "name": "exists",
      "outputs": [
        {
          "internalType": "bool",
          "name": "",
          "type": "bool"
        }
      ],
      "stateMutability": "view",
      "type": "function",
      "constant": true
    },
    {
      "inputs": [],
      "name": "owner",
      "outputs": [
        {
          "internalType": "address",
          "name": "",
          "type": "address"
        }
      ],
      "stateMutability": "view",
      "type": "function",
      "constant": true
    },
    {
      "inputs": [
        {
          "internalType": "uint256",
          "name": "_tokenId",
          "type": "uint256"
        }
      ],
      "name": "buy",
      "outputs": [],
      "stateMutability": "payable",
      "type": "function",
      "payable": true
    },
    {
      "inputs": [],
      "name": "contractURI",
      "outputs": [
        {
          "internalType": "string",
          "name": "",
          "type": "string"
        }
      ],
      "stateMutability": "pure",
      "type": "function",
      "constant": true
    },
    {
      "inputs": [
        {
          "internalType": "uint256",
          "name": "_tokenId",
          "type": "uint256"
        }
      ],
      "name": "getPrice",
      "outputs": [
        {
          "internalType": "uint256",
          "name": "",
          "type": "uint256"
        }
      ],
      "stateMutability": "view",
      "type": "function",
      "constant": true
    }
  ],
  "bytecode": "0x60806040523480156200001157600080fd5b506040518060400160405280600a81526020017f57686572654c616d626f000000000000000000000000000000000000000000008152506040518060400160405280600481526020017f4c4d424f000000000000000000000000000000000000000000000000000000008152506040518060600160405280602381526020016200491e602391398282620000b26301ffc9a760e01b6200028560201b60201c565b8160079080519060200190620000ca92919062000540565b508060089080519060200190620000e392919062000540565b50620000fc6380ac58cd60e01b6200028560201b60201c565b62000114635b5e139f60e01b6200028560201b60201c565b6200012c63780e9d6360e01b6200028560201b60201c565b50506000600b60006101000a81548160ff0219169083151502179055506200016d6000801b620001616200038e60201b60201c565b6200039660201b60201c565b620001c360405180807f4d494e5445525f524f4c45000000000000000000000000000000000000000000815250600b0190506040518091039020620001b76200038e60201b60201c565b6200039660201b60201c565b6200021960405180807f5041555345525f524f4c45000000000000000000000000000000000000000000815250600b01905060405180910390206200020d6200038e60201b60201c565b6200039660201b60201c565b6200022a81620003ac60201b60201c565b50505033600d60006101000a81548173ffffffffffffffffffffffffffffffffffffffff021916908373ffffffffffffffffffffffffffffffffffffffff1602179055506001600e819055506101a4600f81905550620005ef565b63ffffffff60e01b817bffffffffffffffffffffffffffffffffffffffffffffffffffffffff1916141562000322576040517f08c379a000000000000000000000000000000000000000000000000000000000815260040180806020018281038252601c8152602001807f4552433136353a20696e76616c696420696e746572666163652069640000000081525060200191505060405180910390fd5b6001806000837bffffffffffffffffffffffffffffffffffffffffffffffffffffffff19167bffffffffffffffffffffffffffffffffffffffffffffffffffffffff1916815260200190815260200160002060006101000a81548160ff02191690831515021790555050565b600033905090565b620003a88282620003c860201b60201c565b5050565b80600a9080519060200190620003c492919062000540565b5050565b620003f6816000808581526020019081526020016000206000016200046b60201b620032e01790919060201c565b1562000467576200040c6200038e60201b60201c565b73ffffffffffffffffffffffffffffffffffffffff168173ffffffffffffffffffffffffffffffffffffffff16837f2f8788117e7eff1d82e926ec794901d17c78024a50270940304540a733656f0d60405160405180910390a45b5050565b60006200049b836000018373ffffffffffffffffffffffffffffffffffffffff1660001b620004a360201b60201c565b905092915050565b6000620004b783836200051d60201b60201c565b6200051257826000018290806001815401808255809150506001900390600052602060002001600090919091909150558260000180549050836001016000848152602001908152602001600020819055506001905062000517565b600090505b92915050565b600080836001016000848152602001908152602001600020541415905092915050565b828054600181600116156101000203166002900490600052602060002090601f016020900481019282601f106200058357805160ff1916838001178555620005b4565b82800160010185558215620005b4579182015b82811115620005b357825182559160200191906001019062000596565b5b509050620005c39190620005c7565b5090565b620005ec91905b80821115620005e8576000816000905550600101620005ce565b5090565b90565b61431f80620005ff6000396000f3fe6080604052600436106102305760003560e01c80636a6278421161012e578063b88d4fde116100ab578063d96a094a1161006f578063d96a094a14610ef5578063e63ab1e914610f23578063e757223014610f4e578063e8a3d48514610f9d578063e985e9c51461102d57610230565b8063b88d4fde14610c5a578063c87b56dd14610d6c578063ca15c87314610e20578063d539139314610e6f578063d547741f14610e9a57610230565b80639010d07c116100f25780639010d07c14610a4a57806391d1485414610acf57806395d89b4114610b42578063a217fddf14610bd2578063a22cb46514610bfd57610230565b80636a627842146108965780636c0360eb146108e757806370a08231146109775780638456cb59146109dc5780638da5cb5b146109f357610230565b80632f2ff15d116101bc57806342966c681161018057806342966c681461070f5780634f558e791461074a5780634f6ccce71461079d5780635c975abb146107ec5780636352211e1461081b57610230565b80632f2ff15d146105585780632f745c59146105b357806336568abe146106225780633f4ba83a1461067d57806342842e0e1461069457610230565b8063095ea7b311610203578063095ea7b3146103dd57806318160ddd14610438578063235b6ea11461046357806323b872dd1461048e578063248a9ca31461050957610230565b806301ffc9a714610235578063060cf4e8146102a757806306fdde03146102d2578063081812fc14610362575b600080fd5b34801561024157600080fd5b5061028d6004803603602081101561025857600080fd5b8101908080357bffffffffffffffffffffffffffffffffffffffffffffffffffffffff191690602001909291905050506110b6565b604051808215151515815260200191505060405180910390f35b3480156102b357600080fd5b506102bc61111e565b6040518082815260200191505060405180910390f35b3480156102de57600080fd5b506102e7611124565b6040518080602001828103825283818151815260200191508051906020019080838360005b8381101561032757808201518184015260208101905061030c565b50505050905090810190601f1680156103545780820380516001836020036101000a031916815260200191505b509250505060405180910390f35b34801561036e57600080fd5b5061039b6004803603602081101561038557600080fd5b81019080803590602001909291905050506111c6565b604051808273ffffffffffffffffffffffffffffffffffffffff1673ffffffffffffffffffffffffffffffffffffffff16815260200191505060405180910390f35b3480156103e957600080fd5b506104366004803603604081101561040057600080fd5b81019080803573ffffffffffffffffffffffffffffffffffffffff16906020019092919080359060200190929190505050611261565b005b34801561044457600080fd5b5061044d6113a5565b6040518082815260200191505060405180910390f35b34801561046f57600080fd5b506104786113b6565b6040518082815260200191505060405180910390f35b34801561049a57600080fd5b50610507600480360360608110156104b157600080fd5b81019080803573ffffffffffffffffffffffffffffffffffffffff169060200190929190803573ffffffffffffffffffffffffffffffffffffffff169060200190929190803590602001909291905050506113bc565b005b34801561051557600080fd5b506105426004803603602081101561052c57600080fd5b8101908080359060200190929190505050611432565b6040518082815260200191505060405180910390f35b34801561056457600080fd5b506105b16004803603604081101561057b57600080fd5b8101908080359060200190929190803573ffffffffffffffffffffffffffffffffffffffff169060200190929190505050611451565b005b3480156105bf57600080fd5b5061060c600480360360408110156105d657600080fd5b81019080803573ffffffffffffffffffffffffffffffffffffffff169060200190929190803590602001909291905050506114da565b6040518082815260200191505060405180910390f35b34801561062e57600080fd5b5061067b6004803603604081101561064557600080fd5b8101908080359060200190929190803573ffffffffffffffffffffffffffffffffffffffff169060200190929190505050611535565b005b34801561068957600080fd5b506106926115ce565b005b3480156106a057600080fd5b5061070d600480360360608110156106b757600080fd5b81019080803573ffffffffffffffffffffffffffffffffffffffff169060200190929190803573ffffffffffffffffffffffffffffffffffffffff16906020019092919080359060200190929190505050611673565b005b34801561071b57600080fd5b506107486004803603602081101561073257600080fd5b8101908080359060200190929190505050611693565b005b34801561075657600080fd5b506107836004803603602081101561076d57600080fd5b8101908080359060200190929190505050611705565b604051808215151515815260200191505060405180910390f35b3480156107a957600080fd5b506107d6600480360360208110156107c057600080fd5b8101908080359060200190929190505050611717565b6040518082815260200191505060405180910390f35b3480156107f857600080fd5b5061080161173a565b604051808215151515815260200191505060405180910390f35b34801561082757600080fd5b506108546004803603602081101561083e57600080fd5b8101908080359060200190929190505050611751565b604051808273ffffffffffffffffffffffffffffffffffffffff1673ffffffffffffffffffffffffffffffffffffffff16815260200191505060405180910390f35b3480156108a257600080fd5b506108e5600480360360208110156108b957600080fd5b81019080803573ffffffffffffffffffffffffffffffffffffffff169060200190929190505050611788565b005b3480156108f357600080fd5b506108fc611843565b6040518080602001828103825283818151815260200191508051906020019080838360005b8381101561093c578082015181840152602081019050610921565b50505050905090810190601f1680156109695780820380516001836020036101000a031916815260200191505b509250505060405180910390f35b34801561098357600080fd5b506109c66004803603602081101561099a57600080fd5b81019080803573ffffffffffffffffffffffffffffffffffffffff1690602001909291905050506118e5565b6040518082815260200191505060405180910390f35b3480156109e857600080fd5b506109f16119ba565b005b3480156109ff57600080fd5b50610a08611a5f565b604051808273ffffffffffffffffffffffffffffffffffffffff1673ffffffffffffffffffffffffffffffffffffffff16815260200191505060405180910390f35b348015610a5657600080fd5b50610a8d60048036036040811015610a6d57600080fd5b810190808035906020019092919080359060200190929190505050611a89565b604051808273ffffffffffffffffffffffffffffffffffffffff1673ffffffffffffffffffffffffffffffffffffffff16815260200191505060405180910390f35b348015610adb57600080fd5b50610b2860048036036040811015610af257600080fd5b8101908080359060200190929190803573ffffffffffffffffffffffffffffffffffffffff169060200190929190505050611aba565b604051808215151515815260200191505060405180910390f35b348015610b4e57600080fd5b50610b57611aeb565b6040518080602001828103825283818151815260200191508051906020019080838360005b83811015610b97578082015181840152602081019050610b7c565b50505050905090810190601f168015610bc45780820380516001836020036101000a031916815260200191505b509250505060405180910390f35b348015610bde57600080fd5b50610be7611b8d565b6040518082815260200191505060405180910390f35b348015610c0957600080fd5b50610c5860048036036040811015610c2057600080fd5b81019080803573ffffffffffffffffffffffffffffffffffffffff169060200190929190803515159060200190929190505050611b94565b005b348015610c6657600080fd5b50610d6a60048036036080811015610c7d57600080fd5b81019080803573ffffffffffffffffffffffffffffffffffffffff169060200190929190803573ffffffffffffffffffffffffffffffffffffffff1690602001909291908035906020019092919080359060200190640100000000811115610ce457600080fd5b820183602082011115610cf657600080fd5b80359060200191846001830284011164010000000083111715610d1857600080fd5b91908080601f016020809104026020016040519081016040528093929190818152602001838380828437600081840152601f19601f820116905080830192505050505050509192919290505050611d4c565b005b348015610d7857600080fd5b50610da560048036036020811015610d8f57600080fd5b8101908080359060200190929190505050611dc4565b6040518080602001828103825283818151815260200191508051906020019080838360005b83811015610de5578082015181840152602081019050610dca565b50505050905090810190601f168015610e125780820380516001836020036101000a031916815260200191505b509250505060405180910390f35b348015610e2c57600080fd5b50610e5960048036036020811015610e4357600080fd5b8101908080359060200190929190505050612095565b6040518082815260200191505060405180910390f35b348015610e7b57600080fd5b50610e846120bb565b6040518082815260200191505060405180910390f35b348015610ea657600080fd5b50610ef360048036036040811015610ebd57600080fd5b8101908080359060200190929190803573ffffffffffffffffffffffffffffffffffffffff1690602001909291905050506120f4565b005b610f2160048036036020811015610f0b57600080fd5b810190808035906020019092919050505061217d565b005b348015610f2f57600080fd5b50610f38612378565b6040518082815260200191505060405180910390f35b348015610f5a57600080fd5b50610f8760048036036020811015610f7157600080fd5b81019080803590602001909291905050506123b1565b6040518082815260200191505060405180910390f35b348015610fa957600080fd5b50610fb2612465565b6040518080602001828103825283818151815260200191508051906020019080838360005b83811015610ff2578082015181840152602081019050610fd7565b50505050905090810190601f16801561101f5780820380516001836020036101000a031916815260200191505b509250505060405180910390f35b34801561103957600080fd5b5061109c6004803603604081101561105057600080fd5b81019080803573ffffffffffffffffffffffffffffffffffffffff169060200190929190803573ffffffffffffffffffffffffffffffffffffffff169060200190929190505050612485565b604051808215151515815260200191505060405180910390f35b600060016000837bffffffffffffffffffffffffffffffffffffffffffffffffffffffff19167bffffffffffffffffffffffffffffffffffffffffffffffffffffffff1916815260200190815260200160002060009054906101000a900460ff169050919050565b600f5481565b606060078054600181600116156101000203166002900480601f0160208091040260200160405190810160405280929190818152602001828054600181600116156101000203166002900480156111bc5780601f10611191576101008083540402835291602001916111bc565b820191906000526020600020905b81548152906001019060200180831161119f57829003601f168201915b5050505050905090565b60006111d182612519565b611226576040517f08c379a000000000000000000000000000000000000000000000000000000000815260040180806020018281038252602c815260200180614138602c913960400191505060405180910390fd5b6005600083815260200190815260200160002060009054906101000a900473ffffffffffffffffffffffffffffffffffffffff169050919050565b600061126c82611751565b90508073ffffffffffffffffffffffffffffffffffffffff168373ffffffffffffffffffffffffffffffffffffffff1614156112f3576040517f08c379a00000000000000000000000000000000000000000000000000000000081526004018080602001828103825260218152602001806141bc6021913960400191505060405180910390fd5b8073ffffffffffffffffffffffffffffffffffffffff16611312612536565b73ffffffffffffffffffffffffffffffffffffffff16148061134157506113408161133b612536565b612485565b5b611396576040517f08c379a000000000000000000000000000000000000000000000000000000000815260040180806020018281038252603881526020018061408b6038913960400191505060405180910390fd5b6113a0838361253e565b505050565b60006113b160036125f7565b905090565b600e5481565b6113cd6113c7612536565b8261260c565b611422576040517f08c379a00000000000000000000000000000000000000000000000000000000081526004018080602001828103825260318152602001806141dd6031913960400191505060405180910390fd5b61142d838383612700565b505050565b6000806000838152602001908152602001600020600201549050919050565b61147760008084815260200190815260200160002060020154611472612536565b611aba565b6114cc576040517f08c379a000000000000000000000000000000000000000000000000000000000815260040180806020018281038252602f815260200180613f23602f913960400191505060405180910390fd5b6114d68282612943565b5050565b600061152d82600260008673ffffffffffffffffffffffffffffffffffffffff1673ffffffffffffffffffffffffffffffffffffffff1681526020019081526020016000206129d690919063ffffffff16565b905092915050565b61153d612536565b73ffffffffffffffffffffffffffffffffffffffff168173ffffffffffffffffffffffffffffffffffffffff16146115c0576040517f08c379a000000000000000000000000000000000000000000000000000000000815260040180806020018281038252602f8152602001806142bb602f913960400191505060405180910390fd5b6115ca82826129f0565b5050565b61161460405180807f5041555345525f524f4c45000000000000000000000000000000000000000000815250600b019050604051809103902061160f612536565b611aba565b611669576040517f08c379a000000000000000000000000000000000000000000000000000000000815260040180806020018281038252604081526020018061427b6040913960400191505060405180910390fd5b611671612a83565b565b61168e83838360405180602001604052806000815250611d4c565b505050565b6116a461169e612536565b8261260c565b6116f9576040517f08c379a000000000000000000000000000000000000000000000000000000000815260040180806020018281038252603081526020018061424b6030913960400191505060405180910390fd5b61170281612b84565b50565b600061171082612519565b9050919050565b60008061172e836003612cbe90919063ffffffff16565b50905080915050919050565b6000600b60009054906101000a900460ff16905090565b6000611781826040518060600160405280602981526020016140ed602991396003612ced9092919063ffffffff16565b9050919050565b6117ce60405180807f4d494e5445525f524f4c45000000000000000000000000000000000000000000815250600b01905060405180910390206117c9612536565b611aba565b611823576040517f08c379a000000000000000000000000000000000000000000000000000000000815260040180806020018281038252603d81526020018061420e603d913960400191505060405180910390fd5b61183681611831600c612d0c565b612d1a565b611840600c612f0e565b50565b6060600a8054600181600116156101000203166002900480601f0160208091040260200160405190810160405280929190818152602001828054600181600116156101000203166002900480156118db5780601f106118b0576101008083540402835291602001916118db565b820191906000526020600020905b8154815290600101906020018083116118be57829003601f168201915b5050505050905090565b60008073ffffffffffffffffffffffffffffffffffffffff168273ffffffffffffffffffffffffffffffffffffffff16141561196c576040517f08c379a000000000000000000000000000000000000000000000000000000000815260040180806020018281038252602a8152602001806140c3602a913960400191505060405180910390fd5b6119b3600260008473ffffffffffffffffffffffffffffffffffffffff1673ffffffffffffffffffffffffffffffffffffffff168152602001908152602001600020612f24565b9050919050565b611a0060405180807f5041555345525f524f4c45000000000000000000000000000000000000000000815250600b01905060405180910390206119fb612536565b611aba565b611a55576040517f08c379a000000000000000000000000000000000000000000000000000000000815260040180806020018281038252603e815260200180613fa7603e913960400191505060405180910390fd5b611a5d612f39565b565b6000600d60009054906101000a900473ffffffffffffffffffffffffffffffffffffffff16905090565b6000611ab28260008086815260200190815260200160002060000161303b90919063ffffffff16565b905092915050565b6000611ae38260008086815260200190815260200160002060000161305590919063ffffffff16565b905092915050565b606060088054600181600116156101000203166002900480601f016020809104026020016040519081016040528092919081815260200182805460018160011615610100020316600290048015611b835780601f10611b5857610100808354040283529160200191611b83565b820191906000526020600020905b815481529060010190602001808311611b6657829003601f168201915b5050505050905090565b6000801b81565b611b9c612536565b73ffffffffffffffffffffffffffffffffffffffff168273ffffffffffffffffffffffffffffffffffffffff161415611c3d576040517f08c379a00000000000000000000000000000000000000000000000000000000081526004018080602001828103825260198152602001807f4552433732313a20617070726f766520746f2063616c6c65720000000000000081525060200191505060405180910390fd5b8060066000611c4a612536565b73ffffffffffffffffffffffffffffffffffffffff1673ffffffffffffffffffffffffffffffffffffffff16815260200190815260200160002060008473ffffffffffffffffffffffffffffffffffffffff1673ffffffffffffffffffffffffffffffffffffffff16815260200190815260200160002060006101000a81548160ff0219169083151502179055508173ffffffffffffffffffffffffffffffffffffffff16611cf7612536565b73ffffffffffffffffffffffffffffffffffffffff167f17307eab39ab6107e8899845ad3d59bd9653f200f220920489ca2b5937696c3183604051808215151515815260200191505060405180910390a35050565b611d5d611d57612536565b8361260c565b611db2576040517f08c379a00000000000000000000000000000000000000000000000000000000081526004018080602001828103825260318152602001806141dd6031913960400191505060405180910390fd5b611dbe84848484613085565b50505050565b6060611dcf82612519565b611e24576040517f08c379a000000000000000000000000000000000000000000000000000000000815260040180806020018281038252602f81526020018061418d602f913960400191505060405180910390fd5b6060600960008481526020019081526020016000208054600181600116156101000203166002900480601f016020809104026020016040519081016040528092919081815260200182805460018160011615610100020316600290048015611ecd5780601f10611ea257610100808354040283529160200191611ecd565b820191906000526020600020905b815481529060010190602001808311611eb057829003601f168201915b505050505090506060611ede611843565b9050600081511415611ef4578192505050612090565b600082511115611fc55780826040516020018083805190602001908083835b60208310611f365780518252602082019150602081019050602083039250611f13565b6001836020036101000a03801982511681845116808217855250505050505090500182805190602001908083835b60208310611f875780518252602082019150602081019050602083039250611f64565b6001836020036101000a0380198251168184511680821785525050505050509050019250505060405160208183030381529060405292505050612090565b80611fcf856130f7565b6040516020018083805190602001908083835b602083106120055780518252602082019150602081019050602083039250611fe2565b6001836020036101000a03801982511681845116808217855250505050505090500182805190602001908083835b602083106120565780518252602082019150602081019050602083039250612033565b6001836020036101000a03801982511681845116808217855250505050505090500192505050604051602081830303815290604052925050505b919050565b60006120b4600080848152602001908152602001600020600001613227565b9050919050565b60405180807f4d494e5445525f524f4c45000000000000000000000000000000000000000000815250600b019050604051809103902081565b61211a60008084815260200190815260200160002060020154612115612536565b611aba565b61216f576040517f08c379a000000000000000000000000000000000000000000000000000000000815260040180806020018281038252603081526020018061405b6030913960400191505060405180910390fd5b61217982826129f0565b5050565b6000612188826123b1565b905080341015612200576040517f08c379a00000000000000000000000000000000000000000000000000000000081526004018080602001828103825260188152602001807f4e65656420746f2073656e64206578616374206574686572000000000000000081525060200191505060405180910390fd5b61220982612519565b1561227c576040517f08c379a00000000000000000000000000000000000000000000000000000000081526004018080602001828103825260138152602001807f546f6b656e20686173206265656e20736f6c640000000000000000000000000081525060200191505060405180910390fd5b6001821015801561228f5750600f548211155b612301576040517f08c379a00000000000000000000000000000000000000000000000000000000081526004018080602001828103825260138152602001807f5f746f6b656e496420697320696e76616c69640000000000000000000000000081525060200191505060405180910390fd5b61230b3383612d1a565b600d60009054906101000a900473ffffffffffffffffffffffffffffffffffffffff1673ffffffffffffffffffffffffffffffffffffffff166108fc349081150290604051600060405180830381858888f19350505050158015612373573d6000803e3d6000fd5b505050565b60405180807f5041555345525f524f4c45000000000000000000000000000000000000000000815250600b019050604051809103902081565b600080600183101580156123c6575060318311155b156123d75767016345785d8a000090505b603283101580156123ea575061012b8311155b156123fb576706f05b59d3b2000090505b61012c831015801561240f575061018f8311155b1561242057670de0b6b3a764000090505b610190831015801561243457506101a28311155b1561244557671bc16d674ec8000090505b6101a483141561245c5768068155a43676e0000090505b80915050919050565b6060604051806060016040528060238152602001613f8460239139905090565b6000600660008473ffffffffffffffffffffffffffffffffffffffff1673ffffffffffffffffffffffffffffffffffffffff16815260200190815260200160002060008373ffffffffffffffffffffffffffffffffffffffff1673ffffffffffffffffffffffffffffffffffffffff16815260200190815260200160002060009054906101000a900460ff16905092915050565b600061252f82600361323c90919063ffffffff16565b9050919050565b600033905090565b816005600083815260200190815260200160002060006101000a81548173ffffffffffffffffffffffffffffffffffffffff021916908373ffffffffffffffffffffffffffffffffffffffff160217905550808273ffffffffffffffffffffffffffffffffffffffff166125b183611751565b73ffffffffffffffffffffffffffffffffffffffff167f8c5be1e5ebec7d5bd14f71427d1e84f3dd0314c0f7b2291e5b200ac8c7c3b92560405160405180910390a45050565b600061260582600001613256565b9050919050565b600061261782612519565b61266c576040517f08c379a000000000000000000000000000000000000000000000000000000000815260040180806020018281038252602c81526020018061402f602c913960400191505060405180910390fd5b600061267783611751565b90508073ffffffffffffffffffffffffffffffffffffffff168473ffffffffffffffffffffffffffffffffffffffff1614806126e657508373ffffffffffffffffffffffffffffffffffffffff166126ce846111c6565b73ffffffffffffffffffffffffffffffffffffffff16145b806126f757506126f68185612485565b5b91505092915050565b8273ffffffffffffffffffffffffffffffffffffffff1661272082611751565b73ffffffffffffffffffffffffffffffffffffffff161461278c576040517f08c379a00000000000000000000000000000000000000000000000000000000081526004018080602001828103825260298152602001806141646029913960400191505060405180910390fd5b600073ffffffffffffffffffffffffffffffffffffffff168273ffffffffffffffffffffffffffffffffffffffff161415612812576040517f08c379a0000000000000000000000000000000000000000000000000000000008152600401808060200182810382526024815260200180613fe56024913960400191505060405180910390fd5b61281d838383613267565b61282860008261253e565b61287981600260008673ffffffffffffffffffffffffffffffffffffffff1673ffffffffffffffffffffffffffffffffffffffff16815260200190815260200160002061327790919063ffffffff16565b506128cb81600260008573ffffffffffffffffffffffffffffffffffffffff1673ffffffffffffffffffffffffffffffffffffffff16815260200190815260200160002061329190919063ffffffff16565b506128e2818360036132ab9092919063ffffffff16565b50808273ffffffffffffffffffffffffffffffffffffffff168473ffffffffffffffffffffffffffffffffffffffff167fddf252ad1be2c89b69c2b068fc378daa952ba7f163c4a11628f55a4df523b3ef60405160405180910390a4505050565b61296a816000808581526020019081526020016000206000016132e090919063ffffffff16565b156129d257612977612536565b73ffffffffffffffffffffffffffffffffffffffff168173ffffffffffffffffffffffffffffffffffffffff16837f2f8788117e7eff1d82e926ec794901d17c78024a50270940304540a733656f0d60405160405180910390a45b5050565b60006129e58360000183613310565b60001c905092915050565b612a178160008085815260200190815260200160002060000161339390919063ffffffff16565b15612a7f57612a24612536565b73ffffffffffffffffffffffffffffffffffffffff168173ffffffffffffffffffffffffffffffffffffffff16837ff6391f5c32d9c69d2a47ea670b442974b53935d1edc7fd64eb21e047a839171b60405160405180910390a45b5050565b612a8b61173a565b612afd576040517f08c379a00000000000000000000000000000000000000000000000000000000081526004018080602001828103825260148152602001807f5061757361626c653a206e6f742070617573656400000000000000000000000081525060200191505060405180910390fd5b6000600b60006101000a81548160ff0219169083151502179055507f5db9ee0a495bf2e6ff9c91a7834c1ba4fdd244a5e8aa4e537bd38aeae4b073aa612b41612536565b604051808273ffffffffffffffffffffffffffffffffffffffff1673ffffffffffffffffffffffffffffffffffffffff16815260200191505060405180910390a1565b6000612b8f82611751565b9050612b9d81600084613267565b612ba860008361253e565b60006009600084815260200190815260200160002080546001816001161561010002031660029004905014612bf757600960008381526020019081526020016000206000612bf69190613e68565b5b612c4882600260008473ffffffffffffffffffffffffffffffffffffffff1673ffffffffffffffffffffffffffffffffffffffff16815260200190815260200160002061327790919063ffffffff16565b50612c5d8260036133c390919063ffffffff16565b5081600073ffffffffffffffffffffffffffffffffffffffff168273ffffffffffffffffffffffffffffffffffffffff167fddf252ad1be2c89b69c2b068fc378daa952ba7f163c4a11628f55a4df523b3ef60405160405180910390a45050565b600080600080612cd186600001866133dd565b915091508160001c8160001c8090509350935050509250929050565b6000612d00846000018460001b84613476565b60001c90509392505050565b600081600001549050919050565b600073ffffffffffffffffffffffffffffffffffffffff168273ffffffffffffffffffffffffffffffffffffffff161415612dbd576040517f08c379a00000000000000000000000000000000000000000000000000000000081526004018080602001828103825260208152602001807f4552433732313a206d696e7420746f20746865207a65726f206164647265737381525060200191505060405180910390fd5b612dc681612519565b15612e39576040517f08c379a000000000000000000000000000000000000000000000000000000000815260040180806020018281038252601c8152602001807f4552433732313a20746f6b656e20616c7265616479206d696e7465640000000081525060200191505060405180910390fd5b612e4560008383613267565b612e9681600260008573ffffffffffffffffffffffffffffffffffffffff1673ffffffffffffffffffffffffffffffffffffffff16815260200190815260200160002061329190919063ffffffff16565b50612ead818360036132ab9092919063ffffffff16565b50808273ffffffffffffffffffffffffffffffffffffffff16600073ffffffffffffffffffffffffffffffffffffffff167fddf252ad1be2c89b69c2b068fc378daa952ba7f163c4a11628f55a4df523b3ef60405160405180910390a45050565b6001816000016000828254019250508190555050565b6000612f328260000161356c565b9050919050565b612f4161173a565b15612fb4576040517f08c379a00000000000000000000000000000000000000000000000000000000081526004018080602001828103825260108152602001807f5061757361626c653a207061757365640000000000000000000000000000000081525060200191505060405180910390fd5b6001600b60006101000a81548160ff0219169083151502179055507f62e78cea01bee320cd4e420270b5ea74000d11b0c9f74754ebdbfc544b05a258612ff8612536565b604051808273ffffffffffffffffffffffffffffffffffffffff1673ffffffffffffffffffffffffffffffffffffffff16815260200191505060405180910390a1565b600061304a8360000183613310565b60001c905092915050565b600061307d836000018373ffffffffffffffffffffffffffffffffffffffff1660001b61357d565b905092915050565b613090848484612700565b61309c848484846135a0565b6130f1576040517f08c379a0000000000000000000000000000000000000000000000000000000008152600401808060200182810382526032815260200180613f526032913960400191505060405180910390fd5b50505050565b6060600082141561313f576040518060400160405280600181526020017f30000000000000000000000000000000000000000000000000000000000000008152509050613222565b600082905060005b60008214613169578080600101915050600a828161316157fe5b049150613147565b6060816040519080825280601f01601f19166020018201604052801561319e5781602001600182028038833980820191505090505b50905060006001830390508593505b6000841461321a57600a84816131bf57fe5b0660300160f81b828280600190039350815181106131d957fe5b60200101907effffffffffffffffffffffffffffffffffffffffffffffffffffffffffffff1916908160001a905350600a848161321257fe5b0493506131ad565b819450505050505b919050565b60006132358260000161356c565b9050919050565b600061324e836000018360001b6137e5565b905092915050565b600081600001805490509050919050565b613272838383613808565b505050565b6000613289836000018360001b613876565b905092915050565b60006132a3836000018360001b61395e565b905092915050565b60006132d7846000018460001b8473ffffffffffffffffffffffffffffffffffffffff1660001b6139ce565b90509392505050565b6000613308836000018373ffffffffffffffffffffffffffffffffffffffff1660001b61395e565b905092915050565b600081836000018054905011613371576040517f08c379a0000000000000000000000000000000000000000000000000000000008152600401808060200182810382526022815260200180613ed66022913960400191505060405180910390fd5b82600001828154811061338057fe5b9060005260206000200154905092915050565b60006133bb836000018373ffffffffffffffffffffffffffffffffffffffff1660001b613876565b905092915050565b60006133d5836000018360001b613aaa565b905092915050565b6000808284600001805490501161343f576040517f08c379a00000000000000000000000000000000000000000000000000000000081526004018080602001828103825260228152602001806141166022913960400191505060405180910390fd5b600084600001848154811061345057fe5b906000526020600020906002020190508060000154816001015492509250509250929050565b6000808460010160008581526020019081526020016000205490506000811415839061353d576040517f08c379a00000000000000000000000000000000000000000000000000000000081526004018080602001828103825283818151815260200191508051906020019080838360005b838110156135025780820151818401526020810190506134e7565b50505050905090810190601f16801561352f5780820380516001836020036101000a031916815260200191505b509250505060405180910390fd5b5084600001600182038154811061355057fe5b9060005260206000209060020201600101549150509392505050565b600081600001805490509050919050565b600080836001016000848152602001908152602001600020541415905092915050565b60006135c18473ffffffffffffffffffffffffffffffffffffffff16613bc3565b6135ce57600190506137dd565b606061376463150b7a0260e01b6135e3612536565b888787604051602401808573ffffffffffffffffffffffffffffffffffffffff1673ffffffffffffffffffffffffffffffffffffffff1681526020018473ffffffffffffffffffffffffffffffffffffffff1673ffffffffffffffffffffffffffffffffffffffff16815260200183815260200180602001828103825283818151815260200191508051906020019080838360005b83811015613693578082015181840152602081019050613678565b50505050905090810190601f1680156136c05780820380516001836020036101000a031916815260200191505b5095505050505050604051602081830303815290604052907bffffffffffffffffffffffffffffffffffffffffffffffffffffffff19166020820180517bffffffffffffffffffffffffffffffffffffffffffffffffffffffff8381831617835250505050604051806060016040528060328152602001613f52603291398773ffffffffffffffffffffffffffffffffffffffff16613bd69092919063ffffffff16565b9050600081806020019051602081101561377d57600080fd5b8101908080519060200190929190505050905063150b7a0260e01b7bffffffffffffffffffffffffffffffffffffffffffffffffffffffff1916817bffffffffffffffffffffffffffffffffffffffffffffffffffffffff191614925050505b949350505050565b600080836001016000848152602001908152602001600020541415905092915050565b613813838383613bee565b61381b61173a565b15613871576040517f08c379a000000000000000000000000000000000000000000000000000000000815260040180806020018281038252602b815260200180613ef8602b913960400191505060405180910390fd5b505050565b6000808360010160008481526020019081526020016000205490506000811461395257600060018203905060006001866000018054905003905060008660000182815481106138c157fe5b90600052602060002001549050808760000184815481106138de57fe5b906000526020600020018190555060018301876001016000838152602001908152602001600020819055508660000180548061391657fe5b60019003818190600052602060002001600090559055866001016000878152602001908152602001600020600090556001945050505050613958565b60009150505b92915050565b600061396a838361357d565b6139c35782600001829080600181540180825580915050600190039060005260206000200160009091909190915055826000018054905083600101600084815260200190815260200160002081905550600190506139c8565b600090505b92915050565b6000808460010160008581526020019081526020016000205490506000811415613a7557846000016040518060400160405280868152602001858152509080600181540180825580915050600190039060005260206000209060020201600090919091909150600082015181600001556020820151816001015550508460000180549050856001016000868152602001908152602001600020819055506001915050613aa3565b82856000016001830381548110613a8857fe5b90600052602060002090600202016001018190555060009150505b9392505050565b60008083600101600084815260200190815260200160002054905060008114613bb75760006001820390506000600186600001805490500390506000866000018281548110613af557fe5b9060005260206000209060020201905080876000018481548110613b1557fe5b9060005260206000209060020201600082015481600001556001820154816001015590505060018301876001016000836000015481526020019081526020016000208190555086600001805480613b6857fe5b6001900381819060005260206000209060020201600080820160009055600182016000905550509055866001016000878152602001908152602001600020600090556001945050505050613bbd565b60009150505b92915050565b600080823b905060008111915050919050565b6060613be58484600085613bf3565b90509392505050565b505050565b606082471015613c4e576040517f08c379a00000000000000000000000000000000000000000000000000000000081526004018080602001828103825260268152602001806140096026913960400191505060405180910390fd5b613c5785613bc3565b613cc9576040517f08c379a000000000000000000000000000000000000000000000000000000000815260040180806020018281038252601d8152602001807f416464726573733a2063616c6c20746f206e6f6e2d636f6e747261637400000081525060200191505060405180910390fd5b600060608673ffffffffffffffffffffffffffffffffffffffff1685876040518082805190602001908083835b60208310613d195780518252602082019150602081019050602083039250613cf6565b6001836020036101000a03801982511681845116808217855250505050505090500191505060006040518083038185875af1925050503d8060008114613d7b576040519150601f19603f3d011682016040523d82523d6000602084013e613d80565b606091505b5091509150613d90828286613d9c565b92505050949350505050565b60608315613dac57829050613e61565b600083511115613dbf5782518084602001fd5b816040517f08c379a00000000000000000000000000000000000000000000000000000000081526004018080602001828103825283818151815260200191508051906020019080838360005b83811015613e26578082015181840152602081019050613e0b565b50505050905090810190601f168015613e535780820380516001836020036101000a031916815260200191505b509250505060405180910390fd5b9392505050565b50805460018160011615610100020316600290046000825580601f10613e8e5750613ead565b601f016020900490600052602060002090810190613eac9190613eb0565b5b50565b613ed291905b80821115613ece576000816000905550600101613eb6565b5090565b9056fe456e756d657261626c655365743a20696e646578206f7574206f6620626f756e64734552433732315061757361626c653a20746f6b656e207472616e73666572207768696c6520706175736564416363657373436f6e74726f6c3a2073656e646572206d75737420626520616e2061646d696e20746f206772616e744552433732313a207472616e7366657220746f206e6f6e20455243373231526563656976657220696d706c656d656e74657268747470733a2f2f6170692e7061747465726e2e6679692f636f6e7472616374732f304552433732315072657365744d696e7465725061757365724175746f49643a206d75737420686176652070617573657220726f6c6520746f2070617573654552433732313a207472616e7366657220746f20746865207a65726f2061646472657373416464726573733a20696e73756666696369656e742062616c616e636520666f722063616c6c4552433732313a206f70657261746f7220717565727920666f72206e6f6e6578697374656e7420746f6b656e416363657373436f6e74726f6c3a2073656e646572206d75737420626520616e2061646d696e20746f207265766f6b654552433732313a20617070726f76652063616c6c6572206973206e6f74206f776e6572206e6f7220617070726f76656420666f7220616c6c4552433732313a2062616c616e636520717565727920666f7220746865207a65726f20616464726573734552433732313a206f776e657220717565727920666f72206e6f6e6578697374656e7420746f6b656e456e756d657261626c654d61703a20696e646578206f7574206f6620626f756e64734552433732313a20617070726f76656420717565727920666f72206e6f6e6578697374656e7420746f6b656e4552433732313a207472616e73666572206f6620746f6b656e2074686174206973206e6f74206f776e4552433732314d657461646174613a2055524920717565727920666f72206e6f6e6578697374656e7420746f6b656e4552433732313a20617070726f76616c20746f2063757272656e74206f776e65724552433732313a207472616e736665722063616c6c6572206973206e6f74206f776e6572206e6f7220617070726f7665644552433732315072657365744d696e7465725061757365724175746f49643a206d7573742068617665206d696e74657220726f6c6520746f206d696e744552433732314275726e61626c653a2063616c6c6572206973206e6f74206f776e6572206e6f7220617070726f7665644552433732315072657365744d696e7465725061757365724175746f49643a206d75737420686176652070617573657220726f6c6520746f20756e7061757365416363657373436f6e74726f6c3a2063616e206f6e6c792072656e6f756e636520726f6c657320666f722073656c66a26469706673582212207ddfe7acfb02e9d56c5b4534d5ea31f81be3bdafb734c66ae55181bfa51a341064736f6c6343000602003368747470733a2f2f6170692e7061747465726e2e6679692f746f6b656e734c4d424f2f",
  "source": "pragma solidity ^0.6.2;\n\nimport \"@openzeppelin/contracts/presets/ERC721PresetMinterPauserAutoId.sol\";\nimport \"@openzeppelin/contracts/access/Ownable.sol\";\n\ncontract WhenLambo is ERC721PresetMinterPauserAutoId {\n  address payable private _owner;\n  uint256 public _price;\n  uint256 public _cap;\n\n    constructor() public ERC721PresetMinterPauserAutoId(\"WhereLambo\", \"LMBO\", \"https://api.pattern.fyi/tokensLMBO/\") {\n        _owner = msg.sender;\n        _price = 1;\n        _cap = 420;\n\n    }\n\n    function exists(uint256 _tokenId) public view returns (bool) {\n        return _exists(_tokenId);\n    }\n\n    function owner() public view returns (address) {\n        return _owner;\n    }\n\n    function buy(uint256 _tokenId) external payable {\n      uint256 price = getPrice(_tokenId);\n\n        require(msg.value >= price, \"Need to send exact ether\");\n        require(!_exists(_tokenId), 'Token has been sold');\n        require(_tokenId >= 1 && _tokenId <= _cap, '_tokenId is invalid');\n\n        _mint(msg.sender, _tokenId);\n        _owner.transfer(msg.value);\n    }\n\n    function contractURI() public pure returns (string memory) {\n      return \"https://api.pattern.fyi/contracts/0\";\n    }\n\n    function getPrice(uint256 _tokenId) public view returns (uint256){\n      uint256 price;\n      if(_tokenId >= 1 && _tokenId <= 49){\n        price = 0.1 ether;\n      }if(_tokenId >= 50 && _tokenId <= 299){\n        price = 0.5 ether;\n      }\n      if(_tokenId >= 300 && _tokenId <= 399){\n        price = 1 ether;\n      }\n      if(_tokenId >= 400 && _tokenId <= 418){\n        price = 2 ether;\n      }\n      if(_tokenId == 420){\n        price = 120 ether;\n      }\n      return price;\n\n    }\n\n\n\n\n}\n",
  "sourcePath": "/Users/mx/nft/contracts/WhenLambo.sol",
  "compiler": {
    "name": "solc",
    "version": "0.6.2+commit.bacdbe57.Emscripten.clang"
  },
  "schemaVersion": "3.3.4",
  "updatedAt": "2021-04-03T10:57:12.446Z",
  "networkType": "ethereum",
  "devdoc": {
    "methods": {
      "approve(address,uint256)": {
        "details": "See {IERC721-approve}."
      },
      "balanceOf(address)": {
        "details": "See {IERC721-balanceOf}."
      },
      "baseURI()": {
        "details": "Returns the base URI set via {_setBaseURI}. This will be automatically added as a prefix in {tokenURI} to each token's URI, or to the token ID if no specific URI is set for that token ID."
      },
      "burn(uint256)": {
        "details": "Burns `tokenId`. See {ERC721-_burn}.     * Requirements:     * - The caller must own `tokenId` or be an approved operator."
      },
      "getApproved(uint256)": {
        "details": "See {IERC721-getApproved}."
      },
      "getRoleAdmin(bytes32)": {
        "details": "Returns the admin role that controls `role`. See {grantRole} and {revokeRole}.     * To change a role's admin, use {_setRoleAdmin}."
      },
      "getRoleMember(bytes32,uint256)": {
        "details": "Returns one of the accounts that have `role`. `index` must be a value between 0 and {getRoleMemberCount}, non-inclusive.     * Role bearers are not sorted in any particular way, and their ordering may change at any point.     * WARNING: When using {getRoleMember} and {getRoleMemberCount}, make sure you perform all queries on the same block. See the following https://forum.openzeppelin.com/t/iterating-over-elements-on-enumerableset-in-openzeppelin-contracts/2296[forum post] for more information."
      },
      "getRoleMemberCount(bytes32)": {
        "details": "Returns the number of accounts that have `role`. Can be used together with {getRoleMember} to enumerate all bearers of a role."
      },
      "grantRole(bytes32,address)": {
        "details": "Grants `role` to `account`.     * If `account` had not been already granted `role`, emits a {RoleGranted} event.     * Requirements:     * - the caller must have ``role``'s admin role."
      },
      "hasRole(bytes32,address)": {
        "details": "Returns `true` if `account` has been granted `role`."
      },
      "isApprovedForAll(address,address)": {
        "details": "See {IERC721-isApprovedForAll}."
      },
      "mint(address)": {
        "details": "Creates a new token for `to`. Its token ID will be automatically assigned (and available on the emitted {IERC721-Transfer} event), and the token URI autogenerated based on the base URI passed at construction.     * See {ERC721-_mint}.     * Requirements:     * - the caller must have the `MINTER_ROLE`."
      },
      "name()": {
        "details": "See {IERC721Metadata-name}."
      },
      "ownerOf(uint256)": {
        "details": "See {IERC721-ownerOf}."
      },
      "pause()": {
        "details": "Pauses all token transfers.     * See {ERC721Pausable} and {Pausable-_pause}.     * Requirements:     * - the caller must have the `PAUSER_ROLE`."
      },
      "paused()": {
        "details": "Returns true if the contract is paused, and false otherwise."
      },
      "renounceRole(bytes32,address)": {
        "details": "Revokes `role` from the calling account.     * Roles are often managed via {grantRole} and {revokeRole}: this function's purpose is to provide a mechanism for accounts to lose their privileges if they are compromised (such as when a trusted device is misplaced).     * If the calling account had been granted `role`, emits a {RoleRevoked} event.     * Requirements:     * - the caller must be `account`."
      },
      "revokeRole(bytes32,address)": {
        "details": "Revokes `role` from `account`.     * If `account` had been granted `role`, emits a {RoleRevoked} event.     * Requirements:     * - the caller must have ``role``'s admin role."
      },
      "safeTransferFrom(address,address,uint256)": {
        "details": "See {IERC721-safeTransferFrom}."
      },
      "safeTransferFrom(address,address,uint256,bytes)": {
        "details": "See {IERC721-safeTransferFrom}."
      },
      "setApprovalForAll(address,bool)": {
        "details": "See {IERC721-setApprovalForAll}."
      },
      "supportsInterface(bytes4)": {
        "details": "See {IERC165-supportsInterface}.     * Time complexity O(1), guaranteed to always use less than 30 000 gas."
      },
      "symbol()": {
        "details": "See {IERC721Metadata-symbol}."
      },
      "tokenByIndex(uint256)": {
        "details": "See {IERC721Enumerable-tokenByIndex}."
      },
      "tokenOfOwnerByIndex(address,uint256)": {
        "details": "See {IERC721Enumerable-tokenOfOwnerByIndex}."
      },
      "tokenURI(uint256)": {
        "details": "See {IERC721Metadata-tokenURI}."
      },
      "totalSupply()": {
        "details": "See {IERC721Enumerable-totalSupply}."
      },
      "transferFrom(address,address,uint256)": {
        "details": "See {IERC721-transferFrom}."
      },
      "unpause()": {
        "details": "Unpauses all token transfers.     * See {ERC721Pausable} and {Pausable-_unpause}.     * Requirements:     * - the caller must have the `PAUSER_ROLE`."
      }
    }
  },
  "userdoc": {
    "methods": {}
  }
}